:1000000000C90000000100002DE000000000000019
:1000100000000000000000000000000000000000E0
:100020000234F70102200100020000023116023CF6
:10003000180000020826D2AF320000020816D2AF24
:100040003200000224F0D2AF32000002081EBB01D1
:100050000689828A83E0225002E722BBFE02E32265
:1000600089828A83E49322BB010689828A83F022F3
:100070005002F722BBFE01F322EF8DF0A4A8F0CFCF
:100080008CF0A428CE8DF0A42EFE22BC000BBE0066
:1000900029EF8DF084FFADF022E4CCF875F008EF85
:1000A0002FFFEE33FEEC33FCEE9DEC984005FCEEAA
:1000B0009DFE0FD5F0E9E4CEFD22EDF8F5F0EE84DB
:1000C00020D21CFEADF075F008EF2FFFED33FD40A0
:1000D00007985006D5F0F222C398FD0FD5F0EA221A
:1000E000C2D5EC30E709B2D5E4C39DFDE49CFCEE3B
:1000F00030E715B2D5E4C39FFFE49EFE12086BC340
:10010000E49DFDE49CFC800312086B30D507C3E43A
:100110009FFFE49EFE22C5F0F8A3E028F0C5F0F8AA
:10012000E582158270021583E038F022BB010A894E
:10013000828A83E0F5F0A3E022500687F009E719F0
:1001400022BBFE07E3F5F009E3192289828A83E4E2
:1001500093F5F074019322BB0110E58229F582E545
:10016000833AF583E0F5F0A3E0225009E92582F80F
:1001700086F008E622BBFE0AE92582F8E2F5F008DF
:10018000E222E5832AF583E993F5F0A3E99322BB04
:10019000010DC58229C582C5833AC5830208F65080
:1001A00011C58229F808E5F026F618F5F0E5823643
:1001B000F622BBFE11C58229F808E225F0F5F0F21F
:1001C00018E23582F222F8E58229F582E5832AF5E4
:1001D0008374019325F0F5F0E4933822BB010A897A
:1001E000828A83F0E5F0A3F0225006F709A7F01900
:1001F00022BBFE06F3E5F009F31922F8BB0111E575
:100200008229F582E5833AF583E8F0E5F0A3F02250
:100210005009E92582C8F608A6F022BBFE09E925A7
:1002200082C8F2E5F008F222EF2BFFEE3AFEED393C
:10023000FDEC38FC22C3EF9BFFEE9AFEED99FDEC3E
:1002400098FC22E88FF0A4CC8BF0A42CFCE98EF073
:10025000A42CFC8AF0EDA42CFCEA8EF0A4CDA8F02E
:100260008BF0A42DCC3825F0FDE98FF0A42CCD35F2
:10027000F0FCEB8EF0A4FEA9F0EB8FF0A4CFC5F05C
:100280002ECD39FEE43CFCEAA42DCE35F0FDE43C55
:10029000FC2275F008758200EF2FFFEE33FECD33A0
:1002A000CDCC33CCC58233C5829BED9AEC99E582E7
:1002B00098400CF582EE9BFEED9AFDEC99FC0FD573
:1002C000F0D6E4CEFBE4CDFAE4CCF9A88222B80063
:1002D000C1B90059BA002DEC8BF084CFCECDFCE52E
:1002E000F0CBF97818EF2FFFEE33FEED33FDEC3352
:1002F000FCEB33FB10D703994004EB99FB0FD8E5D7
:10030000E4F9FA227818EF2FFFEE33FEED33FDEC1F
:1003100033FCC933C910D7059BE99A4007EC9BFC15
:10032000E99AF90FD8E0E4C9FAE4CCFB2275F010A1
:10033000EF2FFFEE33FEED33FDCC33CCC833C810C6
:10034000D7079BEC9AE899400AED9BFDEC9AFCE8F4
:1003500099F80FD5F0DAE4CDFBE4CCFAE4C8F92241
:10036000EB9FF5F0EA9E42F0E99D42F0EC6480C814
:1003700064809845F022EB9FF5F0EA9E42F0E99DFB
:1003800042F0E89C45F022E8600FECC313FCED134B
:10039000FDEE13FEEF13FFD8F122E0FCA3E0FDA376
:1003A000E0FEA3E0FF22E0F8A3E0F9A3E0FAA3E077
:1003B000FB22ECF0A3EDF0A3EEF0A3EFF022A88275
:1003C0008583F0D083D082120BB5120BB5120BB51A
:1003D000120BB5E473E493A3C583C5F0C583C8C508
:1003E00082C8F0A3C583C5F0C583C8C582C822A44E
:1003F0002582F582E5F03583F58322E0FBA3E0FA60
:10040000A3E0F922EBF0A3EAF0A3E9F022EC8EF0EE
:10041000A4CCC5F0CCCDF8EFA4CEC5F02DFDE43CC6
:10042000FCE8A42EC8C5F03DFDE43CFCEFA4FFE5CC
:10043000F028FEE43DFDE43CFC227F0212386D1200
:1004400029AA902E20E030E2F9900808E41229E071
:10045000FFA3E0900235CFF0EF1229D27F02123CC9
:10046000EF90017AE0FEA3E0FF4E700E900235E0BF
:10047000FCA3E0FDECFEEDFF8014EF25E0FFEE3382
:10048000FE900236E02FFF900235E0122A1790010D
:100490007AEEF0A3EFF0900174E07002A3E0700F29
:1004A00090017AE0FFA3E0900174CFF0A3EFF0E4B5
:1004B00090022FF012297E5010EF122924120B9E69
:1004C00000002710122A2080EBE4900230F0900206
:1004D00030E0C39403748094804003020E24E490BF
:1004E000022FF012297E4003020E1BA3E02401FD1F
:1004F000E433FC74962F122A27D3ED9F7480F86C96
:10050000984003020E1590022FE0FF12386D900202
:100510002FE0FF1229AA902E20E030E2F990022F5E
:10052000E0FF9008061229E0FCA3E0FD1229F7F590
:1005300083ECF0ED1229D290022FE0FF123CEF1273
:10054000294AFDEF25E0248EF582E4340112294387
:10055000FD900174E0FAA3E0FBED2BFDEC3AFC907A
:10056000017AE0FAA3E0FBC3ED9BFDEC9AFC1229B3
:10057000F7122943FD12299FF583ECF0A3EDF090CB
:10058000022FE0FF12298B122958FD4C7009122905
:100590009F12293CFF801990022FE0FBED25E0FF20
:1005A000EC33FEEB1229A01229582FFFEC122A1768
:1005B00090022FE0FD12298B1229681229324E7009
:1005C0000CED12298B12293CFFED12295F90022FAE
:1005D000E0FF25E0247CF582E43401122958FDEC8B
:1005E000C0E0EDC0E0EF12298B12293CFFE4FCFDD6
:1005F000900242120B9290022FE0900246F0D0E05F
:10060000FDD0E0FCE4FF120FE090022FE0FD122984
:100610005FED122924C083C082120B861229322476
:1006200000FFEE34E8FE3395E0FDFC120A08D082AC
:10063000D083120B92122A20020CC3900230E004E5
:10064000F0020CAE902E23E4F090022FF012297EDF
:100650004003020FDFEF122924C083C082120B86F1
:10066000E8C0E0E9C0E0EAC0E0EBC0E090022FE0C3
:100670002496122A27FBE4FAF9F8122920120B7AA1
:10068000123A72D0E0FBD0E0FAD0E0F9D0E0F812F4
:100690000A08D082D083120B92122920120B7AE41E
:1006A0007B507AC3F9F8C3120B40500A122920126A
:1006B0000B9E0000C35090022FE0FF122924120B62
:1006C00086E833500BEF122924120B9E0000000025
:1006D00090022FE0FF1229951229584C7009EF1251
:1006E0002924120B7A802C90022FE01229951229CE
:1006F0003CFF7C007D02120BEDECF8EDF9EEFAEF19
:10070000FB122920120B7A120A08E47B03FAF9F88B
:10071000120AAE90022FE0FD122995F583EEF0A3A8
:10072000EFF0122A0212293C4E700EED122995129A
:10073000293CFF122A0212296890022FE0FF122999
:1007400070C083C082120B86EF122933FFE4FCFDD8
:10075000120A08D082D083120B9290022FE0FF126F
:1007600029BAF583E475F0011208F6EF1229BA12DE
:10077000293CFFD3940AEE94004034EFFBEEFAE4F8
:10078000F9F890022FE0122970120B7A120AAE903B
:10079000022FE0FD122A31122968ED1229BAF583E1
:1007A000E4F0A3F0ED122970120B9E0000000090FF
:1007B0000139E07002A3E0704090022FE0FD1229A1
:1007C00033FFED122A31122958FD123C8290022F7C
:1007D000E0FD122A3B122968ED122A3B12293CD374
:1007E0009406EE940040129001397407F0A374D07F
:1007F000F0A3E475F0011208F6122A20020E2D2251
:10080000900240ECF0A3EDF090023FEFF012335F66
:10081000C083C082900246E0D082D083123359E078
:10082000704612335012336DC083C082900246E08E
:10083000D082D083123359120B7AE4FBFAF9F8C351
:10084000120B566023123350123377C083C082904C
:100850000246E0D082D083123359120B7AE4F8C3F7
:10086000120B566003021144123394C3900241E00C
:100870009FFF900240E09E121305C083C082900249
:1008800046E0FCD082D083123359EEF0A3EFF0EDB6
:1008900012335F1233ABE0605090023FE0FF12333F
:1008A000B2C083C082900246E0D082D08312335916
:1008B000E0FCA3E0FDEF75F005A424FDF582E4342F
:1008C0003CF583E493FE740193FFD3ED9FEC9E40CF
:1008D00018123350123363C083C082900246E0D0B6
:1008E00082D0831233597405F012339412335012AC
:1008F000336DC083C082900246E0D082D083123331
:1009000059120B92123350123381C083C08290026D
:1009100046E0D082D083123339123377C083C0824D
:10092000900246E0D082D083123359120B9290028B
:100930003FE0FF12335FC083C082900246E0FED0EA
:1009400082D083123359E0D3940074809480400E97
:10095000EF12335F75F00EEE120BCFE014F0900241
:100960004202130112335012336DC083C0829002D1
:1009700046E0D082D083123359120B7A900247128C
:100980000B92123350123377C083C082900246E03C
:10099000D082D083123359120B7A90024B12338BD0
:1009A0001233501233C0C083C082900246E0D0821E
:1009B000D083123359E0F9F8120B67EFFBEEFAED32
:1009C000F9ECF812338E120A1590024F120B929026
:1009D0000247120B7A900242120B86120A0890020A
:1009E0004F120B86120A081233CA12339412335074
:1009F00012336DC083C082900246E0D082D0831251
:100A0000335912338B123350123377C083C0829024
:100A10000246E0D082D08312335912338BECC0E00F
:100A2000EDC0E0EEC0E0EFC0E0123350123381C001
:100A300083C082900246E0D082D083123359E0FE18
:100A4000A3E0FBEEFAE4F9F8D0E0FFD0E0FED0E05E
:100A5000FDD0E0FC120AAE1233CA90023FE06401FE
:100A600060030212FE123394EFFBEEFA12338EC3D0
:100A7000EF9BFFEE9A121305C083C082900246E0FE
:100A8000FCD082D083123359EEF0A3EFF0ED123395
:100A9000B21233ABE0FEA3E0FF90023FE0FB75F043
:100AA00005A424FBF582E4343CF583E493FC740153
:100AB00093FDD3EF9DEE9C4065123394EB75F01CD3
:100AC000A412336DC083C082900246E0D082D083EE
:100AD000123359120B92123350123381C083C082E9
:100AE000900246E0D082D083123339123377C0832C
:100AF000C082900246E0D082D083123359120B920A
:100B0000123350123363C083C082900246E0D08219
:100B1000D0831233597405F01233941233CA900201
:100B20004B120B7A22FE123CE390023FE0FD75F07F
:100B30001CA424FCF582E43401F5832290022C12DB
:100B40001CFD400302164C121C18FF121BAF121D95
:100B50000D121BAB120937D39DE5F09C403F121CD0
:100B600018121BAF121D0D121BAB121D589430EE44
:100B70009475400C90022D7475F0A37430F08010C1
:100B8000121C18FF121BAF121D0D121BAB121CB151
:100B900090022CE0121D17F583E40213D4121B8E71
:100BA000121D589410EE9427400C90022D7427F0DB
:100BB000A37410F08006121B8E121CB1121C23901D
:100BC000022CE0FD121D17121C4C30001DED121DF1
:100BD00017121BC6D3942CEE94014014121CC2F5BC
:100BE000837427F0A37410F08006121CC2121C112B
:100BF000E490022DF0A3F0121BF0E0605B121CCD1C
:100C0000D39400EC648094804020EF25E0242212ED
:100C10001C38D3ED9FEC9E401190022CE0121D2158
:100C2000F583E4F0A37464F0802290022CE0FF12BC
:100C30001D21121BD7D39400EC9400400F900107A4
:100C4000121BAB120937FFE5F0121D6C90022CE06D
:100C5000121D487401F0800F121C60F5837403F0BC
:100C6000A374E8F0123BCAD390022EE094009002E5
:100C70002DE0648094805003021602E0FEA3E0FFA2
:100C8000900107121C1B121BAF121D65EE3395E07D
:100C9000FDFCE47BB87A88F9F8C3120B40500A9047
:100CA000022D7488F0A374B8F090022C121C9912D3
:100CB0001BD7D39400EC940050089000F1E064201E
:100CC0007024EF25E02422121C38121CCDC39FECA7
:100CD0009E5013ED9400EC648094804050121C23CD
:100CE0007C007D0A8041300044121BF0E0701AEF56
:100CF00025E02432F8E6FC08E6FD121C23C39DEE35
:100D00009C502A7C027DBC801E90022CE025E024B1
:100D100022F8E6FC08E6FDA3E0FEA3E0FFC39DEE9B
:100D20009C500A7C027DBC1208C0121D6B121BF085
:100D3000E06074EF121C65121BC64E701190022CFD
:100D4000A3E0FCA3E0FD12164D121D6B802F121BB9
:100D5000B9FF121CCD123C82D3EF9432EE940040C6
:100D60001C121C60121BD7D394C8EC9400400EEFE9
:100D7000121C65F58374FF75F09C1208F6121BB9FE
:100D8000FF7C007D07120BEDECF8EDF9EEFAEFFBBE
:100D9000121C23EE3395E0FDFC120A08E47B08FAEE
:100DA000F9F8120AAE8003121C2390022CE025E011
:100DB0002445F582E43401121C4C121BB9FFD39474
:100DC00005EE9400400EEF9410EE94005006900251
:100DD0002DEE801590022C121CA5121BD7FDEF12D0
:100DE0001BBD2DFFEE3C90022DF0A3EFF0D390023F
:100DF0002EE0943090022DE0648094F540077475E5
:100E0000F0A37430F0E5DB54047061121C239001F0
:100E100010121C1BFD121BAF121D65EF24A8FFEE64
:100E20008037E5DB54047044900107121C1BFF124D
:100E30001BAF121DBAEF121CA7121BC6FF900110A8
:100E4000121C1BFD121BAF121D6575F002ED121B6B
:100E5000B212093724A8FFE5F03461FE90010D12AB
:100E60000BDB75F002ED121BB2121D652290022FF2
:100E7000EFF0A3ECF0A3EDF0EF1232FDE0FEA3E003
:100E8000FF123C82D3EF9432EE9400401C1232CD1C
:100E9000120B9E00000000123299E4F01233171278
:100EA00032F9EEF0A3EFF08043123288E0FEA3E0C7
:100EB000FFD39400EE94004033900230E0FCA3E0B6
:100EC000FDD3EF9DEE9C400B90022FE01232C0E06C
:100ED0004401F090022FE0FF12328CE0FAA3E0C34D
:100EE0009DEA9C50071232BFE04402F090022FE0CE
:100EF0001232D2C083C082120B86123317E4FCFD7B
:100F0000120A08D082D083120B9290022FE0FF12B7
:100F10003320E475F0011208F6EF75F007A424DA27
:100F2000F582E4343CF583E493FE740193FF900270
:100F30002FE0FDC454F0245BF582E43402F583E035
:100F4000FAA3E0C39FEA9E50030218CDED123320AE
:100F5000E0FEA3E0FFFBEEFAE4F9F890022FE012C6
:100F600032D2120B7A120AAE900232120B92123265
:100F700088E0FEA3E0FFEEC0E0EFC0E012332DEF0B
:100F8000FDEEFCD0E0FFD0E0FE123C82900236EE97
:100F9000F0A3EFF090022FE0FD75F007A424D5F543
:100FA00082E4343CF583C37401939FE4939E401F15
:100FB000ED12328CE0FEA3E04E601490022FE0FBB5
:100FC00012330AE0FEA3E0C394B8EE940B502190D4
:100FD000022FE0FF12328CE0FCA3E04C7008EF120D
:100FE000330AE4F0A3F012332D123288EE021877A0
:100FF000EB60076401600302187DE4900238F09012
:101000000236E0FEA3E0FFD39450EE94004006A326
:101010007408F0803290022FE01232C0E064036066
:1010200026D3EF943CEE940040089002387402F00E
:101030008015D3900237E09432900236E09400405D
:10104000069002387401F0123288E0FEA3E0FFE45B
:10105000FCFD123333D3120B564011900238E0FFDF
:10106000123288E48FF01208F60218B3D3900237D8
:10107000E09450900236E094004058123288C083C9
:10108000C082E0FEA3E0FF900238E0FDC3EF9DFFC9
:10109000EE9400D082D083F0A3EFF0803612328835
:1010A000E0FEA3E0FF4E700D123333EBFFEAFEE9E2
:1010B000FDE8FC80167C007D07120BED1233331225
:1010C0000A08E47B08FAF9F8120AAE123288EEF048
:1010D000A3EFF01232CD120B9E00000000123299E5
:1010E000E4F012332D1232F9EEF0A3EFF012328851
:1010F000E0FCA3E0FDD39400EC94004056123317BB
:10110000123C8290022FE075F007A424D7F582E408
:10111000343CF583D37401939FE4939E400F900277
:101120002FE0FF12328C1232DFE4F0802690022F83
:10113000E0FF75F007A424D9F582E4343CF583E49C
:1011400093FE1232EBE0C39E50091232881232DF56
:10115000E004F01233172290022DEFF0E0FF244F4D
:10116000F582E43401F583E07003021A0EEF122BCE
:10117000A1E0FEA3E04E70269001BBE0FEA3E0FFDD
:1011800090022DE0FD122BA1EEF0A3EFF0122B89BF
:10119000FFED122B7DE5F0F0A3EFF0021A32900282
:1011A0002DE0122BA1E0FEA3E0FF9001BBE0FCA329
:1011B000E0FD123C829001D1120BDB90022DE0FD8C
:1011C000122BFDEE8FF01209DB74AF2D122BEBE02A
:1011D00070339001D1122B8CC39406E5F09400502B
:1011E00010122B89FFED122B7DE5F0F0A3EFF080BC
:1011F00014E4FFEF122C40500C74AF2F122BEB7441
:1012000001F00F80EE122B9CE0FCA3E0FD9001BBEF
:10121000E0FAA3E0FBD3ED9BEC9A400A74B12F12E5
:101220002C33E4F0802C122C2D7401F08024122B2E
:101230009CE4F0A3F0122B7CE4F0A3F074AF2F1227
:101240002BEBE4F0122BCBE4F0A3F0122BBEE4F076
:10125000A3F0122BE4E07003021B8D122B7CE0FE46
:10126000A3E0D39400EE94005003021B8D122C5186
:1012700090022DE0FD122B90FFAEF0ED122B7DE0E1
:10128000FCA3E0FD123C8290022EEEF0A3EFF09062
:1012900001D5EEF0A3EFF0122B64122C62400CD3B8
:1012A00090022FE0945A122C265013122B64122C09
:1012B0006C505390022FE09496122C264048122B2B
:1012C000E4E4F0EF122BA1E4F0A3F0122C51EF12A2
:1012D0002B90FF90022DE0FD122B7DE0FAA3E0C3DE
:1012E0009FEA95F0500CED122C14E4F0A374C8F0B2
:1012F000800E90022DE0122C147401F0A3742CF0D7
:10130000122C2DE4F022122B64122C624057D312BF
:101310002C20405190022DE0122BBFE0FEA3E0C331
:101320009470EE9417503E122BF374FF75F0F71281
:10133000096F122BBEE475F0091208F6122BCBE0F0
:10134000FEA3E0FFC394E8EE94035019122C57401B
:101350000D122BCC74FF75F0F71208F68007122BD4
:10136000CCE4F0A3F0122B64122C6C5040122C2011
:10137000403B122BF3E475F00912096F122BCBE4FA
:1013800075F0091208F6122BBEE0FEA3E0FFC3942D
:1013900070EE94175017122C57400B122BBF74FF8E
:1013A00075F0F70208F6122BBFE4F0A3F0229001CB
:1013B00004120BDB90022CE0FF75F002A4F582858D
:1013C000F083120937FDACF090010A120BDBEF75C8
:1013D000F002A4F58285F0832290022CE025E0241F
:1013E00045F582E43401F583E0FEA3E022EF25E039
:1013F0002400F582E43401F583E0FCA3E0229002AE
:101400002CE075F00AA42451F582E43401F583221E
:1014100090022CE0FF244FF582E43401F58322EEA4
:101420008FF01209DBED75F00AA42457F582E4343D
:1014300001F583E4F0A3F02290010A120BDB900285
:101440002CE02290022DE0FEA3E0FF2275F006A41E
:101450002426F8E50825E028F8E6FE08E6FF2290B5
:10146000022DE0FFC394027480948022F583EEF095
:10147000A3EFF02275F00AA42455F582E43401228A
:1014800090022CE0FF25E02482F582E434022290D1
:10149000022CE025E024A6F582E4340122EF25E0C9
:1014A00025E02496F582E43401F58322120B7A902C
:1014B000010A120BDB90022C22E0FF25E0247EF5CE
:1014C00082E4340222E0FF25E0243DF582E4340189
:1014D00022120937C39DFEE5F09C90022DF0A3CEA9
:1014E000F022ED25E024DBF582E434012290022D88
:1014F000E0FCA3E0FD2225E024AAF582E4340122E9
:1015000025E02486F582E434012225E0248AF58250
:10151000E4340122F583E475F0010208F6EFF0D31C
:10152000900275E09400900274E094002212093752
:10153000FDACF09001042225E024D7F582E43401CB
:101540002225E0247AF582E434022290022CE0FF86
:1015500025E024E9F582E4340122FDEF25E024A210
:10156000F582E43401F5832224F1F582E43401F5B7
:101570008322EC8DF00209DB120937C39DFFE5F0F1
:101580009CFED3EF22EE8FF00209DBEE90022DF0ED
:10159000A3EFF022E0FD25E02400F582E4340122EF
:1015A00075F00AA42459F582E434012275F00AA4E6
:1015B0002457F582E4340122900107120BDB9002DC
:1015C0002CE0FF229002767403F0A37420F022EB4B
:1015D00025E02482F582E4340122E4F5F00209DBFF
:1015E00025E02441F582E434012275F002020BCF9C
:1015F000D3900275E09400900274E09400400302DE
:101600001FC7122E369001BD120B86E8C0E0E9C05C
:10161000E0EAC0E0EBC0E0122C48FFAEF0E4FCFDD5
:10162000D0E0FBD0E0FAD0E0F9D0E0F8120A089060
:1016300001BD120B929001C1E475F0011208F6C3CE
:101640009001C4E094649001C3E094005003021E32
:10165000AF9001BD120B7AECC0E0EDC0E0EEC0E04F
:10166000EFC0E09001C1E0FEA3E0FBEEFAE4F9F880
:10167000D0E0FFD0E0FED0E0FDD0E0FC120AAE905A
:1016800001BD120B929001BD120B7A9001BBEEF0DE
:10169000A3EFF0A3120B9E00000000E49001C1F044
:1016A000A3F0A3F0A3F0900274E07002A3E0701F17
:1016B00090022CF0122C3B5016EF122C14E0FEA3DB
:1016C000E04E700312193790022CE004F080E5E43C
:1016D00090022CF0122C3B4003021FC7744F2FF5D1
:1016E00082E43401F583E0FF601F90022CE0FE12DB
:1016F0002BB2E0FCA3E04C7010122C48FDEE122B34
:10170000B2E5F0F0A3EDF08024EF7021122C51909F
:10171000022CE0122B90C39496E5F09400500E1228
:101720002BADE4F0A3F0122C07E4F0A3F0122BADE4
:10173000E0FCA3E04C7003021FBE122C5175F002B6
:10174000EF122B93D39498E5F0943A5003021FBE06
:10175000122C48FFAEF090022CE0FD122BB2E0FA02
:10176000A3E0D39FEA9E401D90022CE0FC122BB216
:10177000E0FAA3E0C39FFFEA9EFEEC122BD8EEF046
:10178000A3EFF08008ED122BD8E4F0A3F090022C28
:10179000E0FF122BD8E0FCA3E0D3940AEC940040C5
:1017A0003D122C07E0FEA3E0C39428EE9423502EB4
:1017B00090022CE0FB2496F582E43402F583E07578
:1017C000F00CA4FFAEF0EB122BD8E0FCA3E0FD126E
:1017D000085990022CE0122C08EEF0A3EFF09002D2
:1017E0002CE004F0021EB422D3900275E09F900218
:1017F00074E09E400AA3E09FF0900274E09EF09097
:1018000002791236A8900278E09C400CA3E09FF089
:10181000900278E09EF08002D28AD3900277E09F17
:10182000900276E09E400AA3E09FF0900276E09E50
:10183000F01236B350031236A2D390027BE09F9091
:10184000027AE09E400AA3E09FF090027AE09EF0C8
:10185000D390027FE09F90027EE09E400AA3E09F2B
:10186000F090027EE09EF0D3900283E09F9002828F
:10187000E09E400AA3E09FF0900282E09EF0D390A9
:1018800001DCE09F9001DBE09E400AA3E09FF09026
:1018900001DBE09EF0D3900287E09F900286E09EFD
:1018A000400AA3E09FF0900286E09EF01236C150FD
:1018B000031236A2D390027DE09F90027CE09E400E
:1018C0000AA3E09FF090027CE09EF0D3900281E0BA
:1018D0009F900280E09E400AA3E09FF0900280E08B
:1018E0009EF0D3900285E09F900284E09E400AA380
:1018F000E09FF0900284E09EF0D39001DEE09F90A4
:1019000001DDE09E400AA3E09FF09001DDE09EF043
:101910001236CF50031236A2D39001C6E09F900139
:10192000C5E09E400AA3E09FF09001C5E09EF0D381
:101930009001C8E09F9001C7E09E400AA3E09FF09D
:101940009001C7E09EF09001931236A8900192E0BA
:101950009C400AA3E09FF0900192E09EF0D390019A
:10196000E0E09F9001DFE09E400AA3E09FF090013D
:10197000DFE09EF0EF2401FDE43EFCD3900195E012
:101980009D900194E09C400AA3E09FF0900194E0B8
:101990009EF01236DD50031236A21236EB500312BF
:1019A00036A21236F950031236A21237075003122C
:1019B00036A2D390013AE09F900139E09E400AA3FD
:1019C000E09FF0900139E09EF02290022CEFF0A30E
:1019D0007402F0A374BCF0D39001E0E09400900195
:1019E000DFE09400400C900104121C92121B97122D
:1019F0001D52900274E07002A3E0600B90022DE48F
:101A0000F0A37464F0800B90001AE064117003740A
:101A100020F090022CE0FB121BF5E0601A90022CE3
:101A2000E0FA121BE2120B9E00000000EA121C54A6
:101A3000121C11EB022347121BDEC083C082120B63
:101A400086E8C0E0E9C0E0EAC0E0EBC0E090010455
:101A5000121C92E0121BAF120937FFAEF0E4FCFD3E
:101A6000D0E0FBD0E0FAD0E0F9D0E0F8120A08D0DC
:101A700082D083120B9290022CE0FF121C54121C95
:101A8000F4EF121D80121BC6FF90022DE0FCA3E0B4
:101A9000FDC3EF9DEE9C500302234D121BDEC0835D
:101AA000C082120B7AECC0E0EDC0E0EEC0E0EFC007
:101AB000E090022CE0121C54121BC6FBEEFAE4F973
:101AC000F8D0E0FFD0E0FED0E0FDD0E0FC120AAE9E
:101AD000D082D083120B92121C8FE0121BAF12091E
:101AE000372432FFE435F0FEE4FCFD121BDE120B5E
:101AF00086D3120B564040900274E07002A3E0704F
:101B00003690022CE0FF121D48E0702B90022CE072
:101B1000FE121D8C121CF4EE121D8C121BD7D394D6
:101B200005EC94004027EF121BE2121C8CE0FD1222
:101B30001BAF121BFF8016121BDE121C8CE0FD1265
:101B40001BAF121BFF74F12D121D4AE4F090022C02
:101B5000E0FB121BE2120B9E00000000EB121C5473
:101B6000121C1190022CE0121D80121C11229002F6
:101B70002CEFF0121C73121BC6FFC39404EE9400EA
:101B8000502A90022CE0121BCEFD121C7DC083C097
:101B90008290022CE0FFD082D083121DCAECF0A309
:101BA000EDF0EF121C73121CF402245F90023174EA
:101BB00001F0900231E0FFC3940474809480503AA5
:101BC000121C7DC083C08290022CE0FED082D083A4
:101BD000121DCAE0FCA3E0FDEF25E025E02492F50C
:101BE00082E43401F58375F002EE120BCFECF0A322
:101BF000EDF0900231E004F080B890022CE0121B6E
:101C0000F5E0600302244F900104120BDB90022CDC
:101C1000E0FD121BAF120937FFAEF0ED121BCEFD37
:101C2000123C82C3EF9428EE9400504390022C1291
:101C30001D74121BC6FF90010A120BDBED121BAFC5
:101C4000120937FDACF0123C82C3EF9414EE9400FD
:101C5000500590010A8003900104120BDB90022CC6
:101C6000E0FF121BAF120937121D3AE5F0800C900D
:101C7000022CE0FF121BCE121D3AECF0A3EDF09007
:101C8000022D120B9E00000000E4900231F0121CA5
:101C90006F121BC6FF900231E0FDD3EF9DEE940062
:101CA000403590022D120B86900231E0121C7EC04E
:101CB00083C08290022CE0D082D083121DCAE0FE45
:101CC000A3E0FFE4FCFD120A0890022D120B929093
:101CD0000231E004F080B790022D120B7AECC0E0E4
:101CE000EDC0E0EEC0E0EFC0E0121C6F121BC6FBBF
:101CF000EEFAE4F9F8D0E0FFD0E0FED0E0FDD0E06D
:101D0000FC120AAE90022D120B9290022D020B7A59
:101D1000C0E0C0F0C083C082C0D0E8C0E0D2AFD382
:101D2000900275E09400900274E094004003123633
:101D300094D3900279E09401900278E094004005F9
:101D40001236948002D28AD3900277E094009002F7
:101D500076E0940040031236941236B350031236E4
:101D60009BD390027BE0940090027AE094004003C1
:101D7000123694D390027FE0940090027EE09400AB
:101D80004003123694D3900283E09400900282E0E4
:101D900094004003123694D39001DCE0940090014B
:101DA000DBE094004003123694D3900287E0940065
:101DB000900286E0940040031236941236C150031C
:101DC00012369BD390027DE0940090027CE0940058
:101DD0004003123694D3900281E09400900280E098
:101DE00094004003123694D3900285E09400900250
:101DF00084E094004003123694D39001DEE0940016
:101E00009001DDE0940040031236941236CF500367
:101E100012369BD39001C6E094009001C5E0940077
:101E20004003123694D39001C8E094009001C7E0BB
:101E300094004003123694D3900193E094019001F2
:101E400092E094004003123694D39001E0E09400B5
:101E50009001DFE094004003123694D3900195E0A6
:101E60009401900194E0940040031236941236DD00
:101E7000500312369B1236EB500312369B1236F982
:101E8000500312369B123707500312369BD3900132
:101E90003AE09400900139E094004003123694D067
:101EA000E0F8D0D0D082D083D0F0D0E0327A007980
:101EB000007DFF1227EF7A0179007DF11227EF7B79
:101EC000017A0279737D167C00123C98902DE0E433
:101ED00093900001F09000047411F0A37422F0A319
:101EE0007433F0902DE2E493900012F0902DE3E42F
:101EF00093900014F09000FB7401F090004A74116C
:101F0000F09000F114F0900024F0A37420F07B0115
:101F10007A00793E900104120BE47A007942900134
:101F20000A120BE47A007946900107120BE47A005A
:101F3000793290010D120BE47A00793A9001101277
:101F40000BE47A007936900113120BE47A00796081
:101F5000900122120BE47A00792290011F120BE407
:101F60007A0079809001D1120BE47A00790A90010D
:101F70004C120BE47A00791B900149120BE47A00B1
:101F8000792A900116120BE47A0079269001191231
:101F90000BE47A00792E90011C120BE490011612CA
:101FA0000BDBE475F0C81209BC900119120BDBE4DD
:101FB00075F0641209BC90011C120BDBE475F096FD
:101FC0001209BC7532007533C875220075239690CE
:101FD0000116123CC375F0C81209DB900119123CBE
:101FE000C375F0641209DB90011C123CC375F096B6
:101FF0001209DB7534007535C87524007525969077
:1020000002747407F0A374D0F0E4900273F0227BA2
:10201000017C00123C9822900236EFF0902E22E0D4
:10202000FF90023AE4F0A3EFF0758A50902E2274EC
:1020300001F0900236E01238DC7404F0A3E4F09072
:102040000237F0900237E0FFC3940D748094804013
:1020500003022913EFF87E02E4088006CEA2E713FC
:10206000CE13D8F8FF900238EEF0A3EFF04E7007D1
:10207000900238F0A304F0902E207401F0902E20EE
:10208000E030E2F9900236E0FF902E001238DFE0F7
:10209000FCA3E0D394FEEC94074040123902E0FE2A
:1020A000A3E0FF900238E0FCA3E0FDEF2DFFEE3C43
:1020B000FEC3EF94FFEE9407900236E075F00290B5
:1020C0002E10500B120BCFEC8DF01208F68054122C
:1020D0000BCF7407F0A374FFF08048900236E0FF46
:1020E0001238DCE0FCA3E0FD900238E0FAA3E0FB4C
:1020F000D3ED9BEC9A4021123902C083C082C3A366
:10210000E09BFF0582D5820215831582E09AD0827A
:10211000D083F0A3EFF0800B900236E01238DCE4BD
:10212000F0A3F0902E20E4F0F58D900237E004F05B
:1021300002282390023AA3E0902E22F0758A102202
:1021400090022FE025E025E02437F582E43402F503
:102150008322ED25E0247CF582E43401F583E0FE62
:10216000A3E022F583ECF0A3EDF090022FE0FF2531
:10217000E02431F582E43402F583E0FCA3E022257B
:10218000E0247CF582E43401F583EEF0A3EFF02245
:1021900025E025E0242DF582E43401F58322900228
:1021A0002FE0FFC39402748094802225E02476F50A
:1021B00082E434012225E02486F582E4340122EF12
:1021C00025E024EDF582E4340122123C69758A5041
:1021D00075B28F902E207401F02225E02435F5820F
:1021E000E4340122F583E4932420F582E4342EF5CF
:1021F0008322A3F0902E20E4F0758A1075B293220A
:102200009375F002902E00120BCFE022EF25E02410
:1022100065F582E4340122EF25E02431F582E434CF
:102220000222ED25E02470F582E4340122EF9008CB
:10223000069390080393223EFE7C007D0302086B08
:1022400090022FE004F022F582E43402F583E0FFEF
:102250002225E02429F582E434012225E02425F515
:1022600082E434012290022C121CFD4003022B63F5
:1022700030004290022CE0121CC3121BC64E90028A
:102280002C6019E0FF25E02432F8764E087620EF26
:1022900025E02422F8761F0876408045E0FF25E0FF
:1022A0002432F876050876DCEF25E02422F876055E
:1022B000087614802C121D2B121BD724C8FDE43C79
:1022C000F8EF25E02432C8F608EDF6121D2B121B9C
:1022D000D72496FDE43CF8EF25E02422C8F608ED6B
:1022E000F6121D98121BAF120937FDEF25E02432BC
:1022F000121C38C3ED9FE5F09E502490022CE01292
:102300001BF5E06031121D98121BAF120937FDEF6B
:1023100025E02422121C38C3ED9FE5F09E40179063
:10232000022C121C99121BD74C703A744F2F121B9F
:10233000F77401F0802F9000F1E0642090022C707F
:1023400009E0121C9B121C11800CE0121C9BF583EF
:10235000E4F0A374C8F090022C121BF3E4F0EF1227
:102360001D21121C1190022CE0121BF5E0600312DB
:102370001DA4900150E0C454F0FF90014FE04F9035
:10238000004BF022900107120BDB90022DE0FF754D
:10239000F002A4F58285F083120937FDEF25E024D1
:1023A000B7F582E43401F58322900107120BDBEDCF
:1023B00075F002A4F58285F08302093790022DE0C2
:1023C000FF25E024B3F582E43401F5832290022C4A
:1023D000E0FF25E024E1F582E43401F58322EF25D6
:1023E000E024CDF582E43401F58322EF25E024C911
:1023F000F582E43401F5832225E024E5F582E43416
:1024000001F5832290022DE0FF24AFF582E4340130
:10241000F5832290010A120BDB90022DE075F00289
:10242000A4F58285F08322EF25E024E9F582E434E7
:1024300001F5832225E024C5F582E43401F58322E9
:1024400090022FE0941490022EE094002290022D2E
:10245000E024B1F582E43401F5832290022CE0FF00
:10246000C39402748094802290011F120BDB020936
:102470000C900107020BDBEF9409EE940090022D03
:10248000E022E0FEA3E0D39DEE95F022E0FEA3E083
:10249000C39DEE95F02290022FEFF0E4F50CF50BC2
:1024A000F50AF509F50CF50BF50AF509F508C3E58C
:1024B00008121C45502590022FE0121C2CE4FCFD54
:1024C000E50C2FFFE50B3EFEED350AFDEC35098FDF
:1024D0000C8E0B8D0AF509050880D3E47B02FAF90E
:1024E000F8AF0CAE0BAD0AAC09120AAE90022FE0A9
:1024F000121CD6121C4CE4750CA8750B61F50AF57C
:1025000009F508C3E508121C45507190022FE0FD43
:10251000121C2CED121CD6121BD7FD123C82D3EFDD
:10252000940AEE940090022FE0FF4008121CD6128D
:102530001BD7801175F006A42426F8E50825E028AD
:10254000F8E6FC08E6FDEF25E02470F582E43401AE
:10255000121BC6FFC3ED9FFFEC9EFE3395E0FDFC12
:10256000E50C2FFFE50B3EFEE50A3DFDE5093C8F3E
:102570000C8E0B8D0AF5090508022CE3E47F607EC2
:10258000EAFDFCAB0CAA0BA90AA809D3120B564012
:102590000BE4750C60750BEAF50AF509AE0BAF0C90
:1025A0002290022B7408F0A3E4F0A3743FF0A3740C
:1025B000DFF0E4FDFCF9123CBC0090022BE0FEA32E
:1025C000E02DF582EE3CF583E493FF69F90DBD0043
:1025D000010CBC37E5BDDFE290022DE0FEA3E0F583
:1025E000828E83E493FFE96F700790000104F0800E
:1025F00005E4900001F0123CBC0022000000000045
:102600000100ABC974AA7583F5758255A57455751B
:1026100083FA7582AAA574A57583F5758255A522DE
:1026200002030AB00BB60CFF090208FF0D770E0477
:102630001307141010801500160001929212072142
:1026400021030F04040404010101111010101208E9
:10265000080803020104758D20438D20538D7FE40B
:10266000F5B275B6FF75B7FF75B2A243B20153A8B4
:10267000FB538B7F758B10438B08E58B20E70300A2
:1026800080F8538B7F758B11438B08E58B20E70314
:102690000080F8900294E5B5F0A3E5B4F0758B01E5
:1026A000E4F5B27F02FE121FC8123C18E4F58D90CB
:1026B000011F123D0745F0700F123D04FF90011FEE
:1026C000120BDBE5F0022F3A90011F123D07FFAE1F
:1026D000F090022DEEF0A3EFF0123D04FDC3EF9D4C
:1026E000FFEE95F0FE123CE3D3EF940AEE64809483
:1026F000804024123D04FFC390022EE09F90022DE3
:10270000E095F05006E475F001800790022D74FF0B
:10271000F5F01208F6800D123D04FF90022DE5F051
:10272000F0A3EFF090011F123D07FFAEF07C007D9B
:1027300003120BEDECF8EDF9EEFAEFFB90022DE051
:10274000FEA3E0FFE4FCFD120A08E47B04FAF9F8BA
:10275000120AAE90011F120BDBEE8FF01209BC22A1
:10276000123715123C4F7A0179A61230147A01798A
:10277000967D101230287A0179861230147A017908
:102780008212301E7A01798A12301E7A01794F7DC9
:10279000021230287F02123030E4FFEF121C445046
:1027A00049121BCDFD900104121BAB121D52121BCE
:1027B000CDFD121BA8121D52900107121BAB121D5A
:1027C000BA90010D121BAB746175F0A81209DB9071
:1027D0000113121BAB746175F0A81209DB90011094
:1027E000121BAB121DBA0F022F7B7B017A0179AF4E
:1027F0007D227C00123C987B017A0179517D147C0A
:1028000000123C98E4900007F090004A7411F0A385
:10281000F0121DA4900288E0700FC3900275E0943E
:10282000F4900274E09401500A9002747401F0A3D1
:1028300074F4F0227B017D047C00123C98227B0121
:102840007D047C00123C98227B017C00123C982283
:1028500090022CEFF0E490022EF090022CE0FF901A
:10286000022EE0C39F5076120C1AE490022DF01253
:102870001C3F5060123AF990022DE0FD121CEA1242
:102880001C4CED121CEAF583E0F8A3E0FFED75F0B7
:1028900006A4242AC8F608EFF6ED75F006A4FF2476
:1028A00026F9E4FAFBC0E0C0E0E9C0E074282FF9A3
:1028B000E4900232120BE4900235E4F0A37404F0C9
:1028C000D0E0F9D0E0FAD0E0FB12398F90022DE091
:1028D00004F0809B90022EE004F002303AE4900273
:1028E0002DF0121C3F504E122C7690022D121D74AA
:1028F000121C4CED121DC0121BC6FFED121CE01283
:102900001BD7FD123C827C007D0512086B90022DC6
:10291000121CA5F583ECF0A3EDF0EF121CE0121BE6
:10292000C6FF90022DE0121DC0121C4C90022DE03B
:1029300004F00230C222C0E0C083C082C0D075D093
:1029400018D2AFE5DB30E422D207C206E5DB30E186
:1029500014123CAEE0F5DFEF64077069D28A900094
:1029600007F00231C8C2050231CBE5DB30E52C901F
:1029700000F0E064AA7017758A10F5DAC2AFF5B2FC
:10298000F5A8F5A9F58B758E01758DC080FED20472
:10299000300604C2068054C2078050C206E5DB3010
:1029A000E125E5DB30E044123CAEE0F5DFEF24F951
:1029B000600C24FA60042402700BD2088007D28ACB
:1029C000900007E4F0802120050A780DA6DFD205EB
:1029D000D2068017123CAEE5DFF0EF642470099058
:1029E000027604F0A374F4F0780D0675DBFFD0D006
:1029F000D082D083D0E0329001657412F0A3745C71
:102A0000F0A37412F0A3745CF0123B367B017A01E0
:102A100079707D067C00123C987F02123BF4E490B2
:102A2000022BF090022B12392F5076123BF49002B9
:102A30002BE090080693FF1238DCE0FCA3E0C3947F
:102A400005EC9400400F123902E0FEA3E0D394F0AD
:102A5000EE9407401790022BE0FF25E02465F582F5
:102A6000E43401F583E4F0A3F0123BF4902E23E468
:102A7000F090022B1238D61238E52FFFEC3EFE9074
:102A8000014C120BDB90022BE075F002A4F582855D
:102A9000F083EE8FF01209DB90022BE004F002329B
:102AA0000390001D7410F02290022FE0C454F02413
:102AB00059F582E43402F58322EBC454F02457F52F
:102AC00082E43402F583E4F0A3F090022FE0FFC427
:102AD00054F0245BF582E43402F583E4F0A3F0EFD4
:102AE000C454F02460F582E43402F5832290022F6E
:102AF000E0FBC454F02453F582E43402F58322E071
:102B0000FDA3E0900230CDF0A3EDF0EFC454F0242B
:102B10005FF582E43402F5832290022FE0C454F082
:102B2000245DF582E43402F58322C454F02461F577
:102B300082E43402F58322900230E0FEA3E0FF221B
:102B4000C454F02457F582E43402F5832290023213
:102B5000020B7A900232020B8675F00E120BCFE058
:102B6000FEA3E0FFE4FCFD900242120B86120A2352
:102B700090023FE075F01CA42275F00E020BCF7599
:102B8000F01CA424FBF582E43401F5832224F7F53C
:102B900082E43401F5832224F3F582E43401F583E1
:102BA0002224FFF582E43401F58322120B92900275
:102BB0004B020B7A900242020B7AED75F005A424C9
:102BC000FAF582E4343CF583E49322EC75F00E02CE
:102BD0000BCF75F01CA424FCF582E43401F58322AC
:102BE00024FEF582E43401F5832290024B020B921D
:102BF000900149120BDB12090C641045F0700312AE
:102C00003AB6900001E064AA7003122D819000137F
:102C1000E0FF7E0064107002D203EF64204E700269
:102C2000C20312379120090890001AE06410700D59
:102C300090001A7411F0C209E4900273F09000FB46
:102C4000E06006E4F0900273F0900192E07004A35B
:102C5000E06401600C900194E07004A3E0640170F2
:102C600015E4900192F0A3F0A3F0A3F09001DFF03F
:102C7000A3F0900273F030040CC204900276740149
:102C8000F0A374F4F0222008030234F630000302AB
:102C900034F6C208E490022CF090022C12392F5026
:102CA0006BE0FE1238D8E0FCA3E0FDEE123917EC21
:102CB000F0A3EDF0123BF490022C1238D61238E556
:102CC0002FFFEC3EFE90022CE0FD123923EEF0A324
:102CD000EFF0ED123923E0FEA3E0FF90014C120B60
:102CE000DB75F002EDA4F58285F083EE8FF012091A
:102CF000DBED123917E0FEA3E0FFED1238D8EEF05D
:102D0000A3EFF090022CE004F00234799002767484
:102D100003F0A37420F022787FE4F6D8FD758135A6
:102D2000023541020000023804E493A3F8E493A3BF
:102D30004003F68001F208DFF48029E493A3F854FD
:102D400007240CC8C333C4540F4420C8834004F480
:102D500056800146F6DFE4800B0102040810204093
:102D600080903B6CE47E019360BCA3FF543F30E550
:102D700009541FFEE493A360010ECF54C025E06008
:102D8000A840B8E493A3FAE493A3F8E493A3C8C5D6
:102D900082C8CAC583CAF0A3C8C582C8CAC583CAC7
:102DA000DFE9DEE780BE208A03023612D390027587
:102DB000E094E8900274E094035077900192E07000
:102DC00002A3E0706D900194E07002A3E07063F5DF
:102DD000B2758D20438D20758D8043A808D2AFF544
:102DE0008B900139E0FEA3E0FF4E6005758E5080A8
:102DF00003758EFE20042F20072CE5DB540470267B
:102E0000758A84200720E5DB5404701AF5867587DF
:102E100003000000758601EF4E60047F5080027F42
:102E2000FE7E00121FC8758B01758A1053A8F71219
:102E30003C1822E4FF900278E07004A3E064017083
:102E400011900007E06004D28AE4F0E4900278F088
:102E5000A3F090014FE0600E900024E06410600643
:102E6000EF4402FF8004EF4401FF900150E0600E48
:102E7000900024E064106006EF4420FF8004EF44DB
:102E800010FF90004AEFF09000FFE0FD6F6024908B
:102E9000004AE0FFED6FFE9000FFEFF0EEFF9000C4
:102EA0004AE05F900007F09002787403F0A374E8A2
:102EB000F0C28A2274FFF5F00208F6E475F0010210
:102EC00008F6EE8FF00208F6EF2401FDE43EFCD395
:102ED000E09D22C390015AE094BC900159E0940215
:102EE00022C3900164E094BC900163E0940222C389
:102EF0009001C4E094649001C3E0940022C3900266
:102F000062E094B8900261E0940B22C390025CE00E
:102F100094F490025BE0940122C3900272E094B8B2
:102F2000900271E0940B22C390026CE094F4900242
:102F30006BE09401227B017A0179F37D387C0012E9
:102F40003C98E4FDEDC39402748094805062E49058
:102F5000022BF090022BE0FFC39402748094805007
:102F60004B12339AFEED75F01CA41233C0EF1233EE
:102F7000ACEEF012339A04F87E007401088005C3A9
:102F800033CE33CED8F9FFED75F01CA4123381C0D7
:102F900083C08290022BE0D082D083123359EEF0AE
:102FA000A3EFF090022BE004F00237330D02372438
:102FB00022900289E014601B14603D24027054309A
:102FC000030D9002897401F0D202D200123CCBC2F0
:102FD000018040900286E07002A3E07002C20220ED
:102FE00003319002897402F0D201C202C200900241
:102FF00086F0A37458F0801B900286E07002A3E074
:103000007011900289200303F080067401F0123CD5
:10301000CBC20120010330020A900025E064106059
:1030200002D2092253A87F123C3412268D123BA0F3
:1030300012080E43A880E4F58D1233D0900273E09D
:1030400014601614601E24FE6030240470E81231EF
:10305000D79002737401F080DD122F4090027374D8
:1030600002F080D2123939123586900025E06410C2
:1030700070C49002737404F080BC123A2A90002548
:10308000E0641060B19002737401F080A9E4FEEE78
:10309000C3940774809480502FEE25E025E0241B14
:1030A000F582E4342EF583E5822FF582E43583F54D
:1030B00083E493FDEE25E025E0241AF582E4342E26
:1030C0001229C4EDF00E80C7EFFD7C0070121229AA
:1030D000ECF583E0FAA3E04A7006902E217412F01A
:1030E000ED64014C700F1229EC12293C4E700690D1
:1030F0002E217412F022E0FB90080693902E10759A
:10310000F002020BCFE0FEA3E0FF7C007D0A120874
:1031100059EB25E02465F582E43401F583E0FCA356
:10312000E02275F002EF902E10020BCFEF25E02485
:1031300092F582E434012225E02431F582E4340260
:10314000F5832225E0242DF582E43402F58322E084
:10315000FFC3940274809480227F01123030121DCC
:10316000D0E490022BF090022B121C42503B1239FB
:10317000E090022BE0FF12234EEEFCEFFD900104E5
:10318000120BDB90022BE0FF121BAF121D52121329
:103190001C90022BE0FF122A4590022BE0FF122127
:1031A000AA90022BE004F080BD1236130234669020
:1031B0000237120BE4900232120BDB90023A120B30
:1031C000E4900235E07002A3E0603490023A120B02
:1031D000DB12082EFF900237120BDBEF120847902C
:1031E0000238E475F0011208F690023BE475F00134
:1031F0001208F690023574FFF5F01208F680C2222C
:10320000EF25E02470F582E434011238FB2424FD1C
:10321000EC34FAFCEF25E02486F582E43401F583F2
:10322000E0FAA3E0C39DEA9C501612390C1238FB59
:103230004C701612390CF5837401F0A374F4F0226B
:1032400012390CF583E4F0A3F022900025E064101D
:10325000703FF5B2758D20438D20538D7F53A8F7B5
:10326000F58BE5DB54047013200710F58AF586759D
:103270008703000000758601758A10758B01900226
:10328000887401F09002767403F0A37420F0123C6D
:103290001822C2D5E830E70FB2D5E4C39BFBE49A0D
:1032A000FAE499F9E498F8EC30E717B2D5123AA8A5
:1032B000120AAEE4C39BFBE49AFAE499F9E498F8A5
:1032C0008003120AAE30D50DE4C39FFFE49EFEE4F6
:1032D0009DFDE49CFC22E490022BF0A3F0123CBC88
:1032E00000122DE475EA81E4F5F6F5F475F308F5BE
:1032F000F275EB0700E5EC30E7FBAFF3EFFEADF264
:10330000EDFF900149120BDBEE8FF01209BCE4F5E2
:10331000EC75EB30123CBC0022EFFB121CE0121BE0
:10332000C6FF121DAF121C4CEB121CEA121BD7FD7C
:10333000ECC0E0EDC0E0121DAF121BC6FFE4FCFDC7
:10334000900242120B92EB900246F0D0E0FDD0E0EA
:10335000FC7F01020FE0E4FFEFC3940D74809480C2
:103360005021EF25E02401F582E4342EF583E49327
:10337000FEEF25E02400F582E4342E1229C4EEF09D
:103380000F80D5902F56E0902E2BF022C1074202DD
:10339000960303C10841028A0041028900C103C1AA
:1033A00001C100C102C105010D00C104C1064201F5
:1033B000F100004100FF11C1094302910102940094
:1033C000E4F5DA75DA4043DA2030880875D74075BD
:1033D000D640800675D74275D6425392FE75DA58AC
:1033E00043A80275B80275F8022290022FEFF0E0B0
:1033F00075F010A42453F9740235F0FA7B017D10A6
:103400007C00123C9890022FE012330A740BF0A358
:1034100074B8F022900235EFF0123C69900235E06A
:10342000FF12386D900235E090080693FF1227F7DF
:10343000900235E0FF023CEFE5B254016006E5A8DA
:103440005410700F75B29275B6F9E4F5B743B20136
:1034500043A81022758A10538AEF758601758F056F
:10346000E4F5AB75AC0F75913E759201D28A227B63
:10347000017A0179767D067C00123C987B017A0105
:10348000797C7D067C00023C98EFF874010880028C
:10349000C333D8FC42AB122A0DF45291529353918C
:1034A000DF22D3EF9DEE9C4007EF9DFFEE9CFE22B6
:1034B000C3ED9FFFEC9EFE22ED4C6011E412084725
:1034C0000429F9E43AFAED1D70EE1C80EB22780D28
:1034D000E6FF2400F582E43400F58322758A105358
:1034E0008AEF22120BDB900002E42290028604F0A5
:1034F000A37458F022009600960701F400960096F7
:103500000701F4EE30E707C3E49FFFE49EFE2212BA
:103510002A0D429142884391202203001E0014018B
:1035200000140014900291120BDB02090C00000041
:10353000000000000000000000000000000000008B
:10354000000000000000000000000000000000007B
:10355000000000000000000000000000000000006B
:10356000000000000000000000000000000000005B
:1037F00000000000000000000000000000000008C1
:1038000000000000000000000000000000000000B8
:1038100000000000000000000000000000000000A8
:00000001FF
